:020000040800F2
:100000000000032045370208ED1C0208EF1C02081F
:10001000F11C0208F31C0208F51C02080000000095
:10002000000000000000000000000000F71C0208B3
:10003000F91C020800000000FB1C0208FD1C02085D
:100040009537020895370208953702089537020858
:100050009537020895370208953702089537020848
:100060009537020895370208953702089537020838
:100070009537020895370208953702089537020828
:100080009537020895370208953702089537020818
:10009000953702089537020895370208051D0208B2
:1000A00095370208953702089537020895370208F8
:1000B00095370208953702089537020895370208E8
:1000C00095370208953702089537020895370208D8
:1000D00095370208953702089537020895370208C8
:1000E00095370208953702089537020895370208B8
:1000F00095370208953702089537020895370208A8
:100100009537020895370208953702089537020897
:100110009537020895370208953702089537020887
:10012000111D020895370208953702089537020815
:100130009537020895370208953702089537020867
:100140009537020895370208953702089537020857
:100150009537020895370208953702089537020847
:100160009537020895370208953702089537020837
:1001700095370208953702089537020800000000FD
:10018000211D0208953702089537020895370208A5
:100190009537020895370208953702089537020807
:0C01A0000000000000000000311D0208FB
:1001C0000348044B834202D0034B03B118477047E6
:1001D0009408002094080020000000000548064B09
:1001E0001B1AD90F01EBA301491002D0034B03B135
:1001F0001847704794080020940800200000000071
:1002000010B5064C237843B9FFF7DAFF044B13B15E
:100210000448AFF300800123237010BD9408002030
:10022000000000009837020808B5044B1BB10449D0
:100230000448AFF30080BDE80840CFE700000000AD
:10024000980800209837020880EA0102844612F0DC
:10025000030F4FD111F0030F32D14DF8044D11F0BF
:10026000040F51F8043B0BD0A3F101329A4312F072
:10027000803F04BF4CF8043B51F8043B16D100BF4B
:1002800051F8044BA3F101329A4312F0803FA4F1DC
:1002900001320BD14CF8043BA24312F0803F04BF63
:1002A00051F8043B4CF8044BEAD023460CF8013BD0
:1002B00013F0FF0F4FEA3323F8D15DF8044B70477A
:1002C00011F0010F06D011F8012B0CF8012B002AB8
:1002D00008BF704711F0020FBFD031F8022B12F0A7
:1002E000FF0F16BF2CF8022B8CF8002012F47F4F62
:1002F000B3D1704711F8012B0CF8012B002AF9D16A
:10030000704700BF70B50F4B0F4DAB42A3EB050616
:1003100007D0B610002455F8043B01349847A64294
:10032000F9D823F039FA094D094B5E1BAB424FEA6D
:10033000A60606D0002455F8043B01349847A6428F
:10034000F9D870BDB4500408B4500408B45004087F
:10035000B850040800000000000000000000000089
:10036000000000000000000000000000000000008D
:10037000000000000000000000000000000000007D
:1003800030B490F800F020F007016FF0000C10F08E
:10039000070491F820F040F048804FF000046FF01F
:1003A0000700D1E9002391F840F000F1080082FA3B
:1003B0004CF2A4FA8CF283FA4CF3A2FA8CF34BBB06
:1003C000D1E9022382FA4CF200F10800A4FA8CF27F
:1003D00083FA4CF3A2FA8CF3E3B9D1E9042382FA4D
:1003E0004CF200F10800A4FA8CF283FA4CF3A2FA62
:1003F0008CF37BB9D1E9062301F1200182FA4CF29A
:1004000000F10800A4FA8CF283FA4CF3A2FA8CF300
:10041000002BC6D0002A04BF04301A4612BAB2FA22
:1004200082F200EBD20030BC7047D1E9002304F027
:100430000305C4F100004FEAC50514F0040F91F85C
:1004400040F00CFA05F562EA05021CBF63EA0503F9
:1004500062464FF00004AAE7830730B547D0541E28
:10046000002A3ED0CAB2034601E0013C39D303F86A
:10047000012B9D07F9D1032C2CD9CDB205EB052515
:100480000F2C05EB054535D9A4F1100222F00F0C15
:1004900003F1100EE6444FEA121C1A46C2E9005559
:1004A000C2E9025510327245F8D10CF1010214F084
:1004B0000C0F03EB021204F00F0C13D0ACF1040389
:1004C00023F003030433134442F8045B9342FBD14B
:1004D0000CF003042CB1C9B21C4403F8011BA34265
:1004E000FBD130BD64461346002CF4D1F9E7034636
:1004F0001446C0E71A46A446E0E700BF000000002B
:1005000002780B78012A28BF9A4240F0D8806DE922
:10051000044540EA0104CDE902676FF0000C4FEAA0
:1005200044721AB380EA010414F0070F6BD100F093
:10053000070420F0070004F0030521F007014FEA4B
:10054000C505F0E8042314F0040FF1E804670CFA81
:1005500005F462EA040266EA04060BD063EA0403C7
:10056000624667EA0407664604E000BFF0E8042339
:10057000F1E8046782FA4CF582EA0604A4FA8CF4E6
:100580006CBB83FA4CF583EA0705A5FA8CF595B99F
:1005900050E9022351E9026782FA4CF582EA060427
:1005A000A4FA8CF483FA4CF583EA0705A5FA8CF5D6
:1005B0002543DBD09CB92DBAB5FA85F424F00704A5
:1005C00027FA04F1DDE9026723FA04F303F0FF00E0
:1005D00001F0FF01FDE80445A0EB0100704724BADB
:1005E000B4FA84F424F0070426FA04F1DDE9026782
:1005F00022FA04F202F0FF0001F0FF01FDE80445D9
:10060000A0EB0100704714F0030F3CD110F003047D
:1006100028D150F8082B51F8083B82FA4CF582EAB1
:100620000305A5FA8CF55DB950F8042C51F8043C8B
:1006300082FA4CF582EA0305A5FA8CF5002DE8D084
:100640002DBAB5FA85F424F0070423FA04F122FA4E
:1006500004F202F0FF0001F0FF01FDE80445A0EB09
:10066000010070474FEAC40420F0030050F8082B43
:1006700021F0030151F8083B0CFA04F462EA040289
:1006800063EA0403C9E710F003041DD0A1EB0401E1
:1006900020F00300E40750F8042B06D012D28B7828
:1006A0005FFAA2F4E41A06D12BB1CB785FFAB2F468
:1006B000E41A00D133B920465DF8104B7047A2EB25
:1006C0000300704701F1040150F8042BCC0721F01E
:1006D000030151F8043B48D824D222F07F4482FA27
:1006E0004CF594EA1325A5FA8CF50AD165B951F8B1
:1006F000043B84EA0204B4EB036F0ED150F8042BE0
:10070000EBE74FEA132355E035F07F454DD10878EC
:10071000FDE80445C0F1000070474FEA126203F0A3
:10072000FF0347E002EA1C4482FA4CF594EA1345C1
:10073000A5FA8CF50AD165B951F8043B84EA0204A4
:10074000B4EB034F0CD150F8042BEBE74FEA134303
:1007500030E015EA1C4528D10B884FEA124229E007
:100760004FEA124203EA1C4324E002F0FF0482FA3B
:100770004CF594EA1365A5FA8CF50AD165B951F8E0
:10078000043B84EA0204B4EB032F09D150F8042B94
:10079000EBE74FEA13630DE015F0FF0F05D10B688F
:1007A0004FEA122223F07F4304E04FF00000FDE8FF
:1007B0000445704712BA1BBA82FA4CF482EA030469
:1007C000A4FA8CF5B5FA85F402FA04F203FA04F3FC
:1007D0004FEA1260FDE80445A0EB1360704700BFCC
:1007E000032A30B415D941EA0004A40784460B4615
:1007F00004D0541E0FE0043A032A08D91946604673
:1008000053F8044B5CF8045BA542F4D0F1E7604672
:100810001946541E7AB1431E0139021901E09A4269
:1008200009D013F8010F11F801CF6045F7D0A0EB04
:100830000C0030BC7047002030BC704753B94AB937
:10084000002908BF00281CBF4FF0FF314FF0FF30D8
:1008500000F06AB9ADF1080C6DE904CE00F006F8BD
:10086000DDF804E0DDE9022304B070472DE9F0472C
:10087000089D0E4604460F46002B4AD194468C45EF
:10088000B2FA82F260D942B1C2F12003974020FA55
:1008900003F30CFA02FC1F4394404FEA1C4E1FFA6C
:1008A0008CF6B7FBFEF1230C0EFB117743EA0743EE
:1008B00001FB06F098420AD91CEB030301F1FF3754
:1008C00080F01581984240F21281023963441B1A6C
:1008D000A4B2B3FBFEF00EFB103344EA034400FB6A
:1008E00006F6A6420AD91CEB040400F1FF3380F09F
:1008F0000081A64240F2FD806444023840EA014093
:10090000A41B00211DB1D4400023C5E90043BDE86C
:10091000F0878B4205D90DB1C5E9000100210846D9
:10092000F5E7B3FA83F1002946D1B34202D38242FC
:1009300000F2F580841A66EB030201201746002DB1
:10094000E5D0C5E90047E2E7002A40F09380A1EB3B
:100950000C034FEA1C471FFA8CFE0121B3FBF7F68C
:1009600007FB1630230C43EA00430EFB06F09842C7
:1009700008D91CEB030306F1FF3802D2984200F2BB
:10098000D08046461B1AA4B2B3FBF7F007FB103326
:1009900044EA03440EFB00FEA64508D91CEB040400
:1009A00000F1FF3302D2A64500F2B6801846A4EB50
:1009B0000E0440EA0640A5E7C1F120078B4022FA69
:1009C00007FC4CEA030C06FA01FE20FA07F426FAAB
:1009D00007F344EA0E0400FA01F84FEA1C404FEA1C
:1009E0001449B3FBF0FE1FFA8CF600FB1E3349EAF4
:1009F00003430EFB06F9994502FA01F20BD91CEBF1
:100A000003030EF1FF3A80F08580994540F2828021
:100A1000AEF1020E6344A3EB0909A4B2B9FBF0F3F3
:100A200000FB139944EA094403FB06F6A64208D9E1
:100A30001CEB040403F1FF3068D2A64266D9023BE6
:100A4000644443EA0E40A41BA0FB02E6B442734692
:100A5000B14652D34FD05DB1B8EB030264EB090449
:100A600004FA07F722FA01F31F43CC40C5E90074EA
:100A700000214CE7C2F1200120FA01F30CFA02FC3C
:100A800026FA01F1964033434FEA1C471FFA8CFEC9
:100A9000B1FBF7F007FB1016190C41EA064100FB09
:100AA0000EF68E4204FA02F408D91CEB010100F1A3
:100AB000FF382DD28E422BD902386144891B9BB25C
:100AC000B1FBF7F607FB161143EA014306FB0EF1F3
:100AD000994208D91CEB030306F1FF3814D299425E
:100AE00012D9023E63445B1A46EA004136E73946B2
:100AF000EDE6184602E7F045ADD2BEEB020366EB29
:100B00000C060138B146A6E74646ECE7034698E7EF
:100B10004046D3E7D6467EE76444023847E70846B6
:100B20000DE7023E63442DE7704700BF2DE9F04317
:100B30008DB000240794089409940A940B940094AF
:100B4000594B1A6B42F010021A631A6B02F0100232
:100B50000092009A01941A6B42F004021A631A6B15
:100B600002F004020192019A02941A6B42F02002F0
:100B70001A631A6B02F020020292029A03941A6B13
:100B800042F080021A631A6B02F080020392039A09
:100B900004941A6B42F001021A631A6B02F001020C
:100BA0000492049A05941A6B42F040021A631A6B7D
:100BB00002F040020592059A06941A6B42F0080270
:100BC0001A631B6B03F008030693069BDFF8E4909F
:100BD00022463821484621F066FFDFF8DC802246B5
:100BE0000121404621F05FFF304E224640F20D11B8
:100BF000304621F058FF2E4F22464FF440513846E0
:100C000021F051FF01228021304621F04CFF382392
:100C100007930125089509940A9407A9484621F0ED
:100C200037FE0795089509940A9407A9404621F0D4
:100C30002FFE40F20D130793089509940A9407A913
:100C4000304621F025FE4FF4405307930895099450
:100C50000A9407A9384621F01BFE10230793089435
:100C6000099407A9304621F013FE402307934FF45F
:100C700088130893099407A9304621F009FE8023C0
:100C800007930895099503230A9307A9304621F095
:100C9000FFFD22462146172022F0A2F9172022F05C
:100CA000AFF90DB0BDE8F0830038024000180240F3
:100CB000000C0240001002400014024008B500225F
:100CC0001146382022F08CF9382022F099F908BD1D
:100CD00000B583B000230193134A116B41F48001E6
:100CE0001163126B02F480020192019A0F48104ABC
:100CF00002604360802282604FF40072C2604FF451
:100D00008062026143618361C3614FF40032026219
:100D10000422426203228262C362036321F054FF11
:100D200003B05DF804FB00BF00380240000900205A
:100D30001064024008B50348034B036022F0A2FA96
:100D400008BD00BF980D00200008065010B588B0FF
:100D50000022019202920392049205920692079257
:100D600012484FF02043036003F5827343608260B2
:100D7000C2600261102343618261C2610262426209
:100D80004FF480518162C262026342638263C26334
:100D90004264062101910F240294039105931123CB
:100DA000069301A922F042FA08B010BDB008002055
:100DB00008B50B480B4B03604FF48273436000236C
:100DC0008360C360036143614FF480228261C36129
:100DD0000362436283620A23C36222F0D1FA08BD30
:100DE000400D00200030014008B508484FF0A043F6
:100DF0000360082343710123C3710023837102221E
:100E00004272837222F02AFB08BD00BF60090020F5
:100E100010B50A4C0A4B2360002363600222A260D3
:100E2000E360A362E26223636363204622F05DFB1A
:100E30000121204622F024FC10BD00BFA80D002097
:100E400000B0024030B595B03022002108A8FFF76D
:100E500003FB0024039404940594069407940194DE
:100E60001C4B1A6C42F080521A641B6C03F08053C6
:100E70000193019B0294184B1A6842F440421A6095
:100E80001B6803F440430293029B012308934FF431
:100E90008033099302250E954FF480030F930423AA
:100EA0001093A823119312950723139308A821F0F8
:100EB000D5F90F230393049505944FF4A05306939B
:100EC0004FF480530793052103A821F031FC15B09E
:100ED00030BD00BF00380240007000402DE9F041F5
:100EE00082B022F0CBF8FFF7ADFFFFF71FFEFFF750
:100EF000EFFEFFF71FFFFFF729FFFFF759FFFFF78F
:100F000073FFFFF785FFFFF7D9FE10F063FC00F0D9
:100F1000A3FC00F025FE642022F0DCF802F094FA35
:100F2000002406E000F0BEF84FF4967022F0D2F8EC
:100F30000134092CF6DDDFF8A08000250195062498
:100F400000944FF478433C220A21404600F0A8FA6E
:100F50001F4F019500944FF4FC6382220A2138460A
:100F600000F09EFA1B4E019500941F23C8220A210F
:100F7000304600F095FA4FF4FA6022F0ABF800F03A
:100F800097F8019500944FF478433C220A2140469B
:100F900000F086FA019500944FF4FC6382220A2146
:100FA000384600F07DFA019500941F23C8220A21DB
:100FB000304600F075FA00F07BF800F0DBF900F045
:100FC00077F800F027F800F073F800F011F9B2E7B5
:100FD0000038020808380208F837020810B582B055
:100FE0000446002301936379DBB2022BFBD001A9F5
:100FF000204622F05EF96379DBB2022BFBD0019828
:1010000002B010BD08B50248FFF7E8FF80B208BD86
:10101000980D00202DE9F04383B0002000F0EAFB9A
:101020004FF0000830E01C4F3846FFF7D7FF1B4E4B
:101030003388B0FBF3F203FB12043846FFF7CEFF10
:10104000DFF85C90B9F80030B0FBF3F203FB120557
:101050003846FFF7C3FF3388B0FBF3F203FB1206F9
:101060003846FFF7BBFFB9F80030B0FBF3F203FBE3
:101070001207FFF7C7FF0090BBB2B2B2A9B2A0B28D
:1010800000F0EEFC08F1010841F287339845CADD13
:1010900003B0BDE8F08300BF980D002004000020DD
:1010A0000600002008B5FFF7ADFF00F0A3FB08BD68
:1010B000F8B5002635E01E4F3846FFF78FFF1D4B71
:1010C0001B88B0FBF3F203FB12043846FFF786FFE0
:1010D000194B1B88B0FBF3F203FB1201002289B20B
:1010E000A0B200F0B5FC0135632DE4DD104C2046C4
:1010F000FFF774FF0F4B1B88B0FBF3F203FB1205E5
:101100002046FFF76BFF0C4B1B88B0FBF3F203FB91
:101110001204FFF777FF0246A1B2A8B200F098FCD4
:101120000136B6F57A6F01DA0025DDE7F8BD00BFBC
:10113000980D002004000020060000202DE9F04F4B
:1011400083B08A4616461C46BDF83090B3EB0108C2
:1011500020D4B6EB000B22D4D84505DC2346344618
:101160001E46534682461846A24505D833460646D3
:101170001846234654469A46AAEB0403871B13D409
:1011800003EBD3756D1086422AD34FF0FF320092E5
:10119000019315E0C3F10008A8EB0108D9E7C6F1F7
:1011A000000BABEB000BD7E74742BF1BE8E74A4613
:1011B0003146204600F04CFCED1B0BD40134A4B2A8
:1011C000544511D8D845F2DD4A462146304600F054
:1011D0003FFCF1E7009B1E44B6B2019B1D44EDE7C6
:1011E000012200920193EBE703B0BDE8F08F00000D
:1011F0002DE9F04383B0002000F0FCFA4FF0000826
:1012000030E01B4F3846FFF7E9FE1A4E3388B0FB3B
:10121000F3F203FB12043846FFF7E0FEDFF85890C4
:10122000B9F80030B0FBF3F203FB12053846FFF7C4
:10123000D5FE3388B0FBF3F203FB12063846FFF706
:10124000CDFEB9F80030B0FBF3F203FB1207FFF755
:10125000D9FE0090BBB2B2B2A9B2A0B2FFF76EFF46
:1012600008F10108B8F57A6FCBDB03B0BDE8F08375
:10127000980D002004000020060000202DE9F04F0A
:1012800089B08146884607921E461346013A00926D
:101290005B00C3F10107012306930593002301932B
:1012A00011E0019B01330193069B1F440233069317
:1012B0005AE0009B013B0093059B02330593079A7C
:1012C000A3EB42031F44009B019A93424FDBBDF8FE
:1012D000005005EB09039BB2BDF8044004EB080B7A
:1012E0001FFA8BFB324659460293184600F0B0FBBA
:1012F00004EB09039BB205EB080A1FFA8AFA32468F
:1013000051460393184600F0A3FBA9EB04039AB2DD
:101310001346324651460493184600F099FBA9EB58
:10132000050A1FFA8AFA32465946504600F090FBE9
:10133000A8EB0404A4B232462146504600F088FBD4
:10134000A8EB0505ADB232462946049800F080FBB3
:1013500032462946039800F07BFB3246214602982C
:1013600000F076FB002F9CDD002FA2DCABE709B07C
:10137000BDE8F08F70B582B0002528E0164C01A9B9
:10138000204621F096FF6946204621F092FF134B3C
:101390001B88143B019EB6FBF3F203FB1266104B55
:1013A0001B88143B009CB4FBF3F203FB1244FFF7D1
:1013B00029FE034604F1140106F11400142289B237
:1013C00080B2FFF75BFF012000F0A2F80135B5F510
:1013D000FA6FD3DB02B070BD980D0020040000202E
:1013E000060000202DE9F04385B00F46904699464F
:1013F000BDF830601F2801D92038C0B200230CE0AE
:1014000000EB4001254A02EB4102D15C03F11002DE
:101410006A4402F8081C0133DBB2052BF0D9F30053
:101420009BB206EB4602520092B2BDF83410009116
:101430004146384600F014FB002527E04A4604EBFD
:101440000801E81900F004FB0134E4B2072C1BD8B2
:1014500005F110036B4413F8080C204110F0010F44
:10146000F2D0012EEAD015FB06F014FB06F118FAB3
:1014700081F117FA80F0CDF800903346324689B2F8
:1014800080B200F0EDFADFE70135EDB2052D01D8AD
:101490000024DBE705B0BDE8F08300BFB83D0208DB
:1014A0002DE9F04383B004460D4690461F46BDF833
:1014B0002860BDF82C900DE00134CDF80490009622
:1014C0003B4642462946FFF78DFF06EB460105EBFA
:1014D0004101CDB220780028EED103B0BDE8F08301
:1014E000014B1960704700BF0C860020FEE700002A
:1014F00010B5044600228021034821F0D4FA034BA2
:10150000A3F8FE4010BD00BF0018024000FF0760B6
:1015100008B521F0DFFD08BD10B504460122802189
:10152000034821F0C0FA034BA3F8004110BD00BFEF
:101530000018024000FF0760F8B507460D46164642
:101540001C462A20FFF7D4FF380AFFF7E5FF38468C
:10155000FFF7E2FF300AFFF7DFFF3046FFF7DCFF5F
:101560002B20FFF7C5FF280AFFF7D6FF2846FFF715
:10157000D3FF200AFFF7D0FF2046FFF7CDFF2C2036
:10158000FFF7B6FFF8BD0000F8B5194B1A68013235
:101590001A601A68174B1B689A4203DD164815F04B
:1015A00048FBF8BD0446154F3B68154E32689B1A40
:1015B0000133144D2A6802EB43022A6030680C4B59
:1015C00019683A681B6801339BB292B289B280B243
:1015D000FFF7B2FF3B6832689B1A01330A4A126870
:1015E0002968204621F056FB0028DAD0FEE700BF2C
:1015F0001486002018860020288600201C860020E3
:10160000248600201086002000000020F8B5B1F9E3
:10161000005025EAE575B1F9023023EAE373B1F928
:10162000040040F2DF14A042A8BF2046B1F9061022
:1016300040F23F14A142A8BF2146124C2560124D32
:101640002B60124D28601248016012490B60124E47
:10165000326020680F682A680B6801339BB292B22F
:10166000B9B280B2FFF768FF2B6822689B1A01337A
:101670000A4A126831680A4821F00CFB00B1FEE703
:10168000F8BD00BF24860020208600201C86002094
:1016900018860020148600201086002000000020FC
:1016A0000009002010B5114C00224FF48071204633
:1016B00021F0F9F90120FFF71BFF4FF4FA70FFF753
:1016C00027FF01224FF48071204621F0ECF900221F
:1016D0000421204621F0E7F9C820FFF719FF012275
:1016E0000421204621F0DFF910BD00BF00180240A0
:1016F00010B504463620FFF7FBFE0120FFF708FF78
:10170000032C0ED8DFE804F0020E1A264820FFF75B
:1017100003FF164B4FF4A0721A80154B4FF4F07272
:101720001A8010BD2820FFF7F7FE104B4FF4F0721F
:101730001A800F4B4FF4A0721A80F2E78820FFF74F
:10174000EBFE0A4B4FF4A0721A80094B4FF4F07273
:101750001A80E6E7E820FFF7DFFE044B4FF4F07253
:101760001A80034B4FF4A0721A80DAE704000020BD
:101770000600002008B501220421024821F093F957
:1017800008BD00BF0018024038B50A4D4FF4705331
:1017900000220949284615F0DCF9084C204615F0CE
:1017A000ABF9074BE360074BA3616560204615F07A
:1017B0008FFA38BDE8850020E80D0020288600203B
:1017C0000D160008E114000838B505460C46012244
:1017D0008021064821F067F9002303E0044AA2F8BB
:1017E00000510133A342F9D338BD00BF00180240B5
:1017F00000FF0760F8B50446134E002280213046F2
:1018000021F051F9114D2A8892B2114F3B889BB2B9
:10181000013B013A9BB292B200210846FFF78CFED1
:1018200001228021304621F03EF9398889B22B8887
:101830009BB203FB01F1002303E0064AA2F800413A
:1018400001338B42F9D3F8BD001802400400002098
:101850000600002000FF076010B56F4C6F4A0021A2
:10186000204621F03BFB6E4A0421204621F036FB46
:10187000FFF780FFFFF716FF0120FFF739FE4FF457
:10188000FA70FFF745FEE020FFF732FE0020FFF779
:1018900043FE0320FFF740FE0C20FFF73DFE09202A
:1018A000FFF73AFE1720FFF737FE0920FFF734FE57
:1018B0003E20FFF731FE8920FFF72EFE4920FFF77B
:1018C0002BFE0820FFF728FE0D20FFF725FE0A203B
:1018D000FFF722FE1320FFF71FFE1520FFF71CFE67
:1018E0000F20FFF719FEE120FFF702FE0020FFF7AF
:1018F00013FE1120FFF710FE1520FFF70DFE032049
:10190000FFF70AFE0F20FFF707FE0520FFF704FE92
:101910002D20FFF701FE3420FFF7FEFD4120FFF7E9
:10192000FBFD0220FFF7F8FD0B20FFF7F5FD0A2075
:10193000FFF7F2FD3320FFF7EFFD3720FFF7ECFD57
:101940000F20FFF7E9FDC020FFF7D2FD1720FFF7BA
:10195000E3FD1520FFF7E0FDC120FFF7C9FD4120A1
:10196000FFF7DAFDC520FFF7C3FD0020FFF7D4FD28
:101970001220FFF7D1FD8020FFF7CEFD3A20FFF7C0
:10198000B7FD5520FFF7C8FDB020FFF7B1FD0020DF
:10199000FFF7C2FDB120FFF7ABFDA020FFF7BCFDB4
:1019A000B420FFF7A5FD0220FFF7B6FDE920FFF701
:1019B0009FFD0020FFF7B0FDF720FFF799FDA9205C
:1019C000FFF7AAFD5120FFF7A7FD2C20FFF7A4FD8C
:1019D0008220FFF7A1FDB620FFF78AFD0220FFF766
:1019E0009BFD0220FFF798FD3620FFF781FDE820E0
:1019F000FFF792FD1120FFF77BFD7820FFF788FDB0
:101A00002920FFF775FD0320FFF772FE0020FFF786
:101A1000F1FEFFF7B9FE10BD00090020891500088E
:101A2000ED14000808B502460B46FFF785FD08BD1A
:101A300010B5044601228021034821F034F8034BFD
:101A4000A3F8004110BD00BF0018024000FF07606E
:101A500010B51446FFF7E6FF2046FFF7E9FF10BD7B
:101A600038B51C46184B1B889BB283422BD91546B0
:101A7000164B1B889BB28B4225D98218124B1B88B0
:101A80009BB29A4204DD104B1D88ADB22D1AADB247
:101A90000A190E4B1B889BB29A4204DD0B4B1C8823
:101AA000A4B2641AA4B22A1892B263189BB2013B82
:101AB000013A9BB292B2FFF73FFD05FB04F1BDF87E
:101AC0001000FFF781FE38BD040000200600002052
:101AD00010B4054C20600548017005490A80054A8C
:101AE00013805DF8044B7047B486002058860020B0
:101AF000568600205486002008B54FF4A0734FF49A
:101B0000F07200210148FFF7E3FF08BD5C8600206A
:101B100008B54021034820F0BFFFB0FA80F040092B
:101B200008BD00BF0018024010B50C46FFF7F0FFDB
:101B300010B9084B00221A70074BB3F90020074B6D
:101B4000B3F9003022806380024B1B78A37300201E
:101B500010BD00BFB8860020BC860020BA860020D9
:101B600000B589B0FFF7C8FF01A808F019F9064BC6
:101B7000029301238DF8043001A808F025F9034BE6
:101B8000186009B05DF804FB291B0008C08600201E
:101B9000C0F3C401C0F38522C0F3C4434FF000007A
:101BA00061F3040062F34A1063F3CF207047000032
:101BB00010B4144B1B789BB1134B1B68134803EBF9
:101BC000C30200EB8202546901345461D26803EB12
:101BD000C30300EB83000A44C2605DF8044B704706
:101BE000094B1B68094803EBC30200EB820214692E
:101BF00001341461926803EBC30300EB83000A44D1
:101C00008260EAE7F0060020080000200C000020B7
:101C1000014B00221A607047D088002010B488421F
:101C200002DC0B4601461846401A094C2368094A53
:101C300052F82320B2FBF0FC00FB1C228818013371
:101C400023603F2B01D9002222605DF8044B7047CE
:101C5000D0880020F83F020870B592B006461D4DAE
:101C6000286810F067F80446304610F063F8211A2F
:101C70000020FFF7D3FF01B2304610F0ABFA4FF46B
:101C80007A71C820FFF7CAFF044601A816F0C2FF08
:101C90000196114B0293286810F060F885B2304627
:101CA00010F05CF880B22D1A2DB200230793089330
:101CB00009950A94A3B20D934FF6FF73ADF83C302B
:101CC00004EBD47464100B9401A816F0F3FF12B067
:101CD00070BD00BFDC8800200522010870B50646F3
:101CE000002522E00021124B18680CF06FFC04461E
:101CF000002111F02DFF32460021204611F010FF87
:101D00000C490020FFF78AFFFFF742FF034648F225
:101D100089020021204611F03EFF074920460CF0C1
:101D200015FB2046FFF798FF0135072DDAD970BD66
:101D3000DC880020F0FFFF001038020810B5104CBE
:101D4000204614F075F90F4A48F28E01204614F02F
:101D500027FB0D4B1B7883B17F22094C48F28C0185
:101D6000204614F0B1FA022248F28301204614F012
:101D7000D7F92046FFF7B2FF10BDFF22EDE700BF05
:101D8000E0880020EC070020F006002010B50D4C84
:101D9000204614F04DF90C4A48F28E01204614F00A
:101DA000FFFA0A4B1B7853B17F22064C48F28C0194
:101DB000204614F089FA2046FFF790FF10BDFF225D
:101DC000F3E700BFE0880020F4060020F0060020C2
:101DD00010B50D4C204614F02BF90C4A48F28E0138
:101DE000204614F0DDFA0A4B1B7853B17F22064CD3
:101DF00048F28C01204614F067FA2046FFF76EFF88
:101E000010BDFF22F3E700BFE08800202807002074
:101E1000F006002010B50D4C204614F009F90C4ACC
:101E200048F28E01204614F0BBFA0A4B1B7853B1DE
:101E30007F22064C48F28C01204614F045FA2046D9
:101E4000FFF74CFF10BDFF22F3E700BFE088002042
:101E50005C070020F006002010B50D4C204614F061
:101E6000E7F80C4A48F28E01204614F099FA0A4B22
:101E70001B7853B17F22064C48F28C01204614F0A7
:101E800023FA2046FFF72AFF10BDFF22F3E700BF29
:101E9000E088002054080020F006002010B50D4C0A
:101EA000204614F0C5F80C4A48F28E01204614F082
:101EB00077FA0A4B1B7853B17F22064C48F28C010B
:101EC000204614F001FA2046FFF708FF10BDFF225C
:101ED000F3E700BFE0880020EC070020F0060020B8
:101EE00010B50D4C204614F0A3F80C4A48F28E01B0
:101EF000204614F055FA0A4B1B7853B17F22064C4A
:101F000048F28C01204614F0DFF92046FFF7E6FE88
:101F100010BDFF22F3E700BFE0880020B8070020D3
:101F2000F0060020F8B50746002652E000212A4BB3
:101F3000186810F085FC0446002111F009FE3A46AD
:101F40000021204611F0ECFD244D29460020FFF72A
:101F500065FEFFF71DFE034629220021204611F0F1
:101F60001AFE29460020FFF759FEFFF711FE03462F
:101F700039220021204611F00EFE29460020FFF7ED
:101F80004DFEFFF705FE034659220021204611F0C1
:101F900002FE14F0EBFD14F0EFFD00EBD07040F307
:101FA0004F010520FFF73AFE054614F0DFFD14F05F
:101FB000E3FD00EBD07040F34F010520FFF72EFE4C
:101FC00002B229B2204610F0B7FE2046FFF744FEC9
:101FD0000136072EAAD9F8BDDC880020F0FFFF00EB
:101FE00010B5164C204614F023F805220121204696
:101FF00014F096F8FF222C21204614F065F9104BBE
:102000001B78C3B1CC220D4C5C21204614F05CF946
:1020100005225021204614F083F805225321204642
:1020200014F07EF802225421204614F079F820465C
:10203000FFF778FF10BDFF22E5E700BFE088002032
:10204000F006002010B5114C204613F0F1FF0522D8
:102050000121204614F064F802223021204614F0B9
:102060005FF80B4B1B7873B17F22084C3C21204654
:1020700014F02AF902223221204614F051F82046A9
:10208000FFF750FF10BDFF22EFE700BFE088002000
:10209000F006002010B50E4C204613F0C9FF0522B3
:1020A0000121204614F03CF80A4B1B7873B17F22C3
:1020B000074C2C21204614F007F90222202120464B
:1020C00014F02EF82046FFF72DFF10BDFF22EFE79A
:1020D000E0880020F006002010B5184C204613F0D0
:1020E000A7FF05220121204614F01AF8FF222C2117
:1020F000204614F0E9F8124B1B78EBB1CC220F4CC0
:102100005C21204614F0E0F810225021204614F003
:1021100007F808225121204614F002F80822522123
:10212000204613F0FDFF02225321204613F0F8FF52
:102130002046FFF7F7FE10BDFF22E0E7E088002011
:10214000F006002010B5114C204613F071FF052257
:102150000121204613F0E4FFFF222C21204614F039
:10216000B3F80B4B1B7873B1CC22084C5C21204692
:1021700014F0AAF810225021204613F0D1FF204677
:10218000FFF7D0FE10BDFF22EFE700BFE088002080
:10219000F006002010B5184C204613F049FF052228
:1021A0000121204613F0BCFFFF222C21204614F011
:1021B0008BF8124B1B78EBB1CC220F4C5C212046E4
:1021C00014F082F805225021204613F0A9FF0422C2
:1021D0005121204613F0A4FF04225221204613F07F
:1021E0009FFF02225321204613F09AFF2046FFF75B
:1021F00099FE10BDFF22E0E7E0880020F0060020F5
:1022000010B5114C204613F013FF05220121204682
:1022100013F086FFFF222C21204614F055F80B4BBB
:102220001B7873B1CC22084C5C21204614F04CF88A
:1022300005225021204613F073FF2046FFF772FE5F
:1022400010BDFF22EFE700BFE0880020F00600206D
:1022500010B5114C204613F0EBFE0522012120465B
:1022600013F05EFF02223021204613F059FF0B4B82
:102270001B7873B17F22084C3C21204614F024F8CF
:1022800003223121204613F04BFF2046FFF74AFE80
:1022900010BDFF22EFE700BFE0880020F00600201D
:1022A00010B5114C204613F0C3FE05220121204633
:1022B00013F036FF02223021204613F031FF0B4B82
:1022C0001B7873B17F22084C3C21204613F0FCFFA1
:1022D0000C223121204613F023FF2046FFF722FE77
:1022E00010BDFF22EFE700BFE0880020F0060020CD
:1022F00010B5114C204613F09BFE0522012120460B
:1023000013F00EFF02223021204613F009FF0B4B81
:102310001B7873B17F22084C3C21204613F0D4FF78
:1023200006223121204613F0FBFE2046FFF7FAFD7E
:1023300010BDFF22EFE700BFE0880020F00600207C
:1023400010B5114C204613F073FE052201212046E2
:1023500013F0E6FE02223021204613F0E1FE0B4B83
:102360001B7873B17F22084C3C21204613F0ACFF50
:1023700004223121204613F0D3FE2046FFF7D2FD80
:1023800010BDFF22EFE700BFE0880020F00600202C
:1023900010B5114C204613F04BFE052201212046BA
:1023A00013F0BEFE02223021204613F0B9FE0B4B83
:1023B0001B7873B17F22084C3C21204613F084FF28
:1023C00002223121204613F0ABFE2046FFF7AAFD82
:1023D00010BDFF22EFE700BFE0880020F0060020DC
:1023E00010B50F4C204613F023FE47F6FF72012173
:1023F000204613F095FE02223021204613F090FE75
:10240000084B1B784BB17F22054C3C21204613F032
:102410005BFF2046FFF786FD10BDFF22F4E700BFFB
:10242000E0880020F006002010B50E4C204613F086
:10243000FFFD05220121204613F072FE0222302109
:10244000204613F06DFE084B1B784BB17F22054CE4
:102450003C21204613F038FF2046FFF763FD10BDF6
:10246000FF22F4E7E0880020F006002010B50C4CB5
:10247000204613F0DDFD02223021204613F050FEED
:10248000084B1B784BB17F22054C3C21204613F0B2
:102490001BFF2046FFF746FD10BDFF22F4E700BFFB
:1024A000E0880020F006002010B50C4C204613F008
:1024B000BFFD47F6FF720121204613F031FE084BA5
:1024C0001B784BB17F22054C2C21204613F0FCFEDB
:1024D0002046FFF727FD10BDFF22F4E7E08800202B
:1024E000F006002010B50C4C204613F0A1FD05228B
:1024F0000121204613F014FE084B1B784BB17F22BC
:10250000054C2C21204613F0DFFE2046FFF70AFD84
:1025100010BDFF22F4E700BFE0880020F006002095
:1025200010B5094813F084FD084B1B784BB17F228E
:10253000054C2C21204613F0C7FE2046FFF7F2FC85
:1025400010BDFF22F4E700BFE0880020F006002065
:10255000F0B593B0074600265CE000212F4B1868C9
:1025600008F046FF0446002111F0F2FA012120464E
:1025700011F0EEFA14F0FAFA14F0FEFA00EBD07053
:1025800040F34F010520FFF749FB054614F0EEFA32
:1025900014F0F2FA00EBD07040F34F010520FFF782
:1025A0003DFB02B229B2204610F0C6FB3A4601219B
:1025B000204611F0B5FA1A490020FFF72FFBFFF76C
:1025C000E7FA034699220121204611F0E4FA00219E
:1025D000204608F0E3FDFA213220FFF71FFB0546F5
:1025E00001A816F017FB01940E4B029300230793EA
:1025F000089340F2671309930A95ADB20D954FF613
:10260000FF73ADF83C3001A816F054FB2046FFF7ED
:1026100023FB0136072EA0D913B0F0BDDC880020C3
:10262000F0FFFF0031B2000810B50E4C204613F049
:10263000FFFC08229021204613F072FD0A4B1B7804
:1026400073B17F22074C9C21204613F03DFE0222ED
:102650009121204613F064FD2046FFF779FF10BD5D
:10266000FF22EFE7E0880020F006002010B50C4CB8
:10267000204613F0DDFC08229021204613F050FD87
:10268000084B1B784BB17F22054C9C21204613F050
:102690001BFE2046FFF75CFF10BDFF22F4E700BFE2
:1026A000E0880020F006002010B50C4C204613F006
:1026B000BFFC02229021204613F032FD084B1B780C
:1026C0004BB17F22054C9C21204613F0FDFD204696
:1026D000FFF73EFF10BDFF22F4E700BFE0880020B7
:1026E000F0060020F8B5064600256BE014F03EFA2F
:1026F00014F042FA394B83FB0023C117C1EBA3014D
:1027000009B224E014F032FA14F036FA334B83FBAA
:102710000023C117C1EBA30109B20820FFF77EFA1D
:1027200004EB05122E4B03EB8203588001340F2C6F
:102730001FD8631E03EB0513294A32F8237014F0E7
:1027400015FA14F019FAB0F5997FCFDA10210820A4
:10275000FFF764FA074404EB0513214A22F82370BB
:1027600014F004FA14F008FAB0F5997FCADA1021CF
:10277000D3E700211B4B18680CF064F904460021D4
:1027800011F0E6F932460021204611F0C9F9164948
:102790000020FFF743FAFFF7FBF9034699220021D7
:1027A000204611F0F8F910220D4901EB8511204661
:1027B0000CF09CF8012120460CF0DCF82046FFF7D5
:1027C0004BFA0135072D08D80549AB0101EB8510FF
:1027D0000022CA5242800124A9E7F8BD398EE338AD
:1027E000D0860020DC880020F0FFFF0010B50E4CE2
:1027F000204613F01DFC02229021204613F090FC8D
:102800000A4B1B7873B17F22074C9C21204613F0A2
:102810005BFD02229121204613F082FC2046FFF747
:1028200061FF10BDFF22EFE7E0880020F0060020E6
:1028300010B50C4C204613F0FBFB022290212046E1
:1028400013F06EFC084B1B784BB17F22054C9C218A
:10285000204613F039FD2046FFF744FF10BDFF224C
:10286000F4E700BFE0880020F00600202DE9F047E3
:102870008146884617461E469DF820A0002511E097
:1028800040F60F610020FFF7C9F901B220460AF0B7
:10289000BDFA39E0514620460AF0CEFB2046FFF74C
:1028A000DBF9013514F062F914F066F9044614F00E
:1028B0005DF914F076F900FB04F4234B9C422FDC05
:1028C00001239D423ED20021204B18680AF0B2FC41
:1028D0000446002111F03CF94A460021204611F03F
:1028E0001FF9414620460AF0CDFB19490020FFF7A9
:1028F00095F9FFF74DF9034648F2A9020021204659
:1029000011F049F9002FBBD1002EC3D04FF4A071B4
:102910008020FFF783F981B220460AF005FBB9E772
:1029200014F024F914F028F9044614F01FF914F0F7
:1029300038F904FB00F0074A82FB0032C317C3EBEF
:102940002233BEE7BDE8F0879F860100DC880020C7
:10295000F0FFFF0089B5F81410B582B00E4813F0EF
:1029600067FB0E4B1B78ABB17F220B4C48F2AC01DE
:10297000204613F0A9FC022248F2A001204613F0E1
:10298000CFFB00220092134605492046FFF76EFF59
:1029900002B010BDFF22E8E7E0880020F00600202A
:1029A000D468020810B582B00B4813F041FB0B4B02
:1029B0001B787BB17F22084C48F2AC01204613F013
:1029C00083FC01230093002205492046FFF74EFFB8
:1029D00002B010BDFF22EEE7E0880020F0060020E4
:1029E000D468020810B582B00B4813F021FB0B4BE2
:1029F0001B787BB17F22084C48F2AC01204613F0D3
:102A000063FC00220092012305492046FFF72EFFB8
:102A100002B010BDFF22EEE7E0880020F0060020A3
:102A2000D468020810B582B00B4813F001FB0B4BC1
:102A30001B787BB17F22084C48F2AC01204613F092
:102A400043FC01230093002205492046FFF70EFFB7
:102A500002B010BDFF22EEE7E0880020F006002063
:102A600010DE020810B582B00B4813F0E1FA0B4BF0
:102A70001B787BB17F22084C48F2AC01204613F052
:102A800023FC00220092012305492046FFF7EEFEB9
:102A900002B010BDFF22EEE7E0880020F006002023
:102AA00010DE020810B582B00B4813F0C1FA0B4BD0
:102AB0001B787BB17F22084C48F2AC01204613F012
:102AC00003FC01220092002305492046FFF7CEFEB9
:102AD00002B010BDFF22EEE7E0880020F0060020E3
:102AE000D468020810B582B00B4813F0A1FA0B4B62
:102AF0001B787BB17F22084C48F2AC01204613F0D2
:102B0000E3FB00230093012205492046FFF7AEFEB8
:102B100002B010BDFF22EEE7E0880020F0060020A2
:102B2000D468020810B582B00B4813F081FA0B4B41
:102B30001B787BB17F22084C48F2AC01204613F091
:102B4000C3FB01220092002305492046FFF78EFEB9
:102B500002B010BDFF22EEE7E0880020F006002062
:102B600010DE020810B582B00B4813F061FA0B4B6F
:102B70001B787BB17F22084C48F2AC01204613F051
:102B8000A3FB00230093012205492046FFF76EFEB8
:102B900002B010BDFF22EEE7E0880020F006002022
:102BA00010DE020810B582B00E4813F041FA0E4B49
:102BB0001B78ABB17F220B4C48F2AC01204613F0DE
:102BC00083FB7F2248F2AD01204613F07DFB0022FB
:102BD0000092134605492046FFF748FE02B010BD9B
:102BE000FF22E8E7E0880020F00600203C2C0308E4
:102BF00010B582B00E4813F01BFA0E4B1B78ABB128
:102C00007F220B4C48F2AC01204613F05DFB7F2283
:102C100048F2AD01204613F057FB00220092134604
:102C200005492046FFF722FE02B010BDFF22E8E76B
:102C3000E0880020F00600201040030810B582B0A4
:102C40000E4813F0F5F90E4B1B78ABB17F220B4CFD
:102C500048F2AC01204613F037FB7F2248F2AD0169
:102C6000204613F031FB002200921346054920460E
:102C7000FFF7FCFD02B010BDFF22E8E7E08800206E
:102C8000F0060020D468020810B582B00E4813F098
:102C9000CFF90E4B1B78ABB17F220B4C48F2AC0145
:102CA000204613F011FB7F2248F2AD01204613F0BD
:102CB0000BFB00220092134605492046FFF7D6FD84
:102CC00002B010BDFF22E8E7E0880020F0060020F7
:102CD00010DE020810B582B00B4813F0A9F90B4BB7
:102CE0001B787BB17F22084C48F2AC01204613F0E0
:102CF000EBFA00220092134605492046FFF7B6FD85
:102D000002B010BDFF22EEE7E0880020F0060020B0
:102D10004055020810B582B00B4813F089F90B4BEF
:102D20001B787BB17F22084C48F2AC01204613F09F
:102D3000CBFA00220092134605492046FFF796FD84
:102D400002B010BDFF22EEE7E0880020F006002070
:102D50003C2C030810B582B00B4813F069F90B4BFB
:102D60001B787BB17F22084C48F2AC01204613F05F
:102D7000ABFA00220092134605492046FFF776FD84
:102D800002B010BDFF22EEE7E0880020F006002030
:102D90001040030810B582B00B4813F049F90B4BF3
:102DA0001B787BB17F22084C48F2AC01204613F01F
:102DB0008BFA00220092134605492046FFF756FD84
:102DC00002B010BDFF22EEE7E0880020F0060020F0
:102DD000D468020810B582B00B4813F029F90B4BE8
:102DE0001B787BB17F22084C48F2AC01204613F0DF
:102DF0006BFA00220092134605492046FFF736FD84
:102E000002B010BDFF22EEE7E0880020F0060020AF
:102E100010DE020808B513F0A9FE13F028FE08BD65
:102E200010B50C460CF000FC214609F0F3F810BD7B
:102E30002DE9F043C3B0754B186811F025FA744BB7
:102E40001B78002B7BD0734B1B68002B73DB03EBD1
:102E5000C301714A02EB8102D26822B96E4A02EBC9
:102E600081020121D16003EBC3016B4A02EB8102B5
:102E700051694FF47A7000FB01F1D068B1FBF0F1B9
:102E8000D161526812B10133624A1360604B002273
:102E90001A70604B1B6803EBC3015F4A02EB8102AF
:102EA0005268002A00F0AC805C4A10685A00584909
:102EB0000978002967D00124224403EBC303564C50
:102EC00054F82330002960D05549019100936023C4
:102ED00054490BF0A3FA4E4B1B78002B57D14D4BA6
:102EE0001B68002B65DD013B4B4803EBC30100EB86
:102EF000810103EBC302CB6950F822204A494B48B9
:102F000000680BF08BFAFEF783FE424B1B6803EB65
:102F1000C303414A02EB83035B6898470023052201
:102F20004FF47A71424813F091FF012114F03DF8FB
:102F300043B0BDE8F0830133364A1360A6E7354B52
:102F40001B6803EBC301344A02EB8102926822B989
:102F5000314A02EB8102012191602F4903EBC3004A
:102F600001EB800002694FF47A7404FB02F280687E
:102F7000B2FBF0F203EBC30301EB83018A61244B44
:102F800001221A7085E7002496E72A499DE7214B24
:102F90001A68214802EBC20100EB810102EBC20278
:102FA0008B6950F822202449204800680BF036FA3B
:102FB000A9E720491D4B18680BF0C8F9A3E70122C7
:102FC00003EBC307144901EB8701C96902FB010048
:102FD0001544013303EBC3010F4A02EB810252682F
:102FE00062B303EBC3010C4A02EB8102916992F8D0
:102FF000202002FB01441644032AE0D95208DFE7EF
:10300000002318461C461D461E46E3E7DC880020C8
:10301000F0060020080000200C000020D8880020C6
:1030200060380208683802088C380208D48800200A
:10303000312E0008D0380208743802082718731996
:10304000B7FBF3F7B4FBF6F4B0FBF5F0642303FB36
:1030500000F0B0FBF4F4FFF7DDFE11F015F90025E8
:10306000B24B1D60FFF7D6FE29460CF0E5F980460D
:1030700013F07CFD13F080FD064613F077FD13F08E
:1030800090FD0246314640460FF056FE2946404626
:103090000BF09CFAA64B18603A46A6490BF0BEF915
:1030A000294640460BF092FAA34B18602246A349EA
:1030B0000BF0B4F940460CF0F3FA84B20A3C24B2A7
:1030C000294640460DF0A6FE064629460EF0BEFEF5
:1030D000294630460EF00EFC022130460DF052FE1D
:1030E00004EB44031A46AB4267DB42F38F02002134
:1030F00030460DF021FF2246002C60DB92100121AA
:1031000030460DF019FF8E4C204612F0B2FE8D4B6A
:103110001A882921204613F06DF87F222C212046A1
:1031200013F0D2F8884F384612F0A3FE4FF0000299
:1031300022F01F02292363F34A126FEA42526FEA18
:10314000525248F28901384613F054F87F4D284610
:1031500012F08FFE4FF0000222F01F0222F4FC62F8
:103160006FEA42526FEA525248F28901284613F040
:1031700041F83A460221304610F0D2FC2A4603219B
:10318000304610F0CDFC22460421304610F0C8FC39
:1031900001230022114630460DF054FF6C4B0022F3
:1031A000114630460DF06EFD0423002211463046D4
:1031B0000DF0E0FE012400252AE0DA1C95E7E21C70
:1031C0009CE7644B03EB820753F822300022214630
:1031D00030460DF057FDBB695F4A4FF4807102A87D
:1031E00007F0D6FA02AB0122214630460DF04AFD27
:1031F00002230022214630460DF0BCFE02230122AC
:10320000214630460DF0B6FE0134A4B211E001357E
:103210002F2D4AD805EBC5024E4B03EB82039B6969
:10322000132B06D84B4B03EB820393F82030092B6A
:10323000C7D805EBC502474B03EB8203DB69132BB1
:10324000E5D8444B03EB820393F82030132BDED9EF
:10325000404B03EB820753F82230404A4FF4807111
:1032600002A807F095FA02AB0022214630460DF085
:1032700009FDFB69384A4FF4807102A807F088FA0B
:1032800002AB0122214630460DF0FCFC0223002255
:10329000214630460DF06EFE0223012221463046C3
:1032A0000DF068FE0134A4B2B1E7012C15D0012362
:1032B0000022214630460DF0C5FE294B0022214652
:1032C00030460DF0DFFC04230022214630460DF08D
:1032D00051FE0134A4B2002555E00123002221460D
:1032E00030460DF0AFFE1F4B0022214630460DF058
:1032F000C9FC0134A4B2DAE7032300222146304698
:103300000DF038FE03230122214630460DF032FE37
:1033100059E002230022214630460DF02BFE022305
:103320000122214630460DF025FE4CE0DC880020CD
:10333000D8880020AC380208D4880020C0380208A1
:10334000CC860020B0370208C8860020C486002042
:10335000D43802080C000020EC380208F0380208CB
:1033600008390208FC380208032300223946304697
:103370000DF000FE03230122394630460DF0FAFD20
:103380000234A4B201352F2D53D82C4B05EBC502C6
:1033900003EB820753F822300022214630460DF01D
:1033A00071FCBB69264A4FF4807102A807F0F0F95E
:1033B00002AB0122214630460DF064FCBB69092BAB
:1033C0009AD9132BA5D9671CBFB21C4B05EBC502BC
:1033D00003EB820953F822301A4A4FF4807102A895
:1033E00007F0D6F902AB0022394630460DF04AFC10
:1033F000D9F81C30124A4FF4807102A807F0C8F9BE
:1034000002AB0122394630460DF03CFCD9F81C30A5
:10341000092BA9D9132BB3D80223002239463046F1
:103420000DF0A8FD02230122394630460DF0A2FD21
:10343000A6E702214046FFF7F3FC79E50C000020E7
:10344000EC380208F03802082DE9F04383B0002080
:1034500013F0F6FB294B8361FFF7DCFC804600216B
:1034600010F076FBFF232C220021404610F0ABFB2E
:10347000002140460BF0AAF8214D28600222114697
:103480000EF052FE002140460BF0A0F8DFF87C90D1
:10349000C9F800000024009423460C2229680EF08D
:1034A00009FF214640460FF0CBF9164D2860214612
:1034B00010F04EFB2F6840460EF03CFC064640469E
:1034C0000EF04CFC82B2D9F80030DB8AD21A92B2EC
:1034D000023A12B2314638460FF02EFC00942346D1
:1034E0000522214628680EF0E5FE074812F0C1FCCF
:1034F0002046FFF79DFC03B0BDE8F083B11B000838
:10350000D8880020DC880020E0880020D4880020B3
:1035100008B512F0EBF8036A03B1984708BD000044
:1035200010B512F0E3F8436A03B110BD0446054B31
:103530001B6813F0010FF8D0E369002BF7D0204689
:103540009847F4E700B0024082B0074B1A6B42F490
:1035500000021A63BFF34F8F1B6B0193034B0222D0
:103560005A6302B0704700BF0038024000B002400A
:103570002DE9F04180460D4616461F46FFF7C8FF6D
:103580000B4C4FF440332360C4F83C80B6B2A663C2
:10359000ED1B2564BDF9182042EA074262642368E6
:1035A00043F001032360FFF7BBFFBDE8F08100BFDC
:1035B00000B002402DE9F84380460D4691461E4674
:1035C000BDF92070FFF7A4FF0C4C002323600223F9
:1035D000E361C4F80C90F61B2661C4F83C80ED1B37
:1035E0002564BDF9243043EA07436364236843F04C
:1035F00001032360FFF794FFBDE8F88300B00240A9
:103600002DE9F8430646894690461D46BDF92470CB
:10361000FFF77EFF114C4FF40033236002236362F7
:103620006661A9EB0701A1612D0645F00215E56170
:10363000C4F80C80BDF92030DB1B2361E6632164F4
:10364000BDF9283043EA07436364236843F001036C
:103650002360FFF765FFBDE8F88300BF00B00240BC
:1036600090B110B50446C36943B90A4B1B6813F007
:10367000010FFAD107E0E36920469847054B1B6824
:1036800013F0010FF7D110BD024B1B6813F0010FAF
:10369000FAD1704700B0024010B58646CEF3C42080
:1036A000C1F3C42CC2F1FF0303FB0CFC02FB00CCF2
:1036B0000CF1800C0CEB0C200CEBC01CCCF3C45CAC
:1036C0004FF000006CF3CF20CEF34514C1F3451C3E
:1036D0000CFB03FC04FB02CC0CF1800C0CEB0C2467
:1036E0000CEBC41CCCF3C55C6CF34A100EF01F0E3F
:1036F00001F01F0101FB03F30EFB0232803202EBEB
:10370000022302EBC312C2F3C45262F3040010BDE1
:1037100070B50C46013A272A31D8DFE812F02800AC
:103720003600BB008F004A005400FD023000180133
:10373000370240001F0304024103300030007200D2
:10374000300052013000E201FA0131033001400142
:10375000DD015C01C501F800D502ED02E600A10023
:103760006A027E019F01AD02A9018202A30200212B
:1037700020460EF019FBCB4B196812F0E1FBFF223B
:103780001146204610F052F970BD002120460EF07F
:103790000BFBC44B1968043112F0D2FBEFE7002198
:1037A00020460EF001FBBF4B1968043112F0C8FB34
:1037B000E5E7002120460EF0F7FABA4B1968103100
:1037C00012F0BEFBDBE7002120460EF0EDFA0646C4
:1037D000B44D2968043112F0B3FB29681831304622
:1037E00012F0AEFB012120460EF0DEFA06462968F3
:1037F000043112F0A5FB29680831304612F0A0FB15
:10380000BDE7002120460EF0CFFA0646A54D2968F7
:1038100012F096FB29686C31304612F091FB0121C1
:1038200020460EF0C1FA06462968043112F088FBE2
:1038300029680831304612F083FBA0E700212046BA
:103840000EF0B2FA974D2968283112F079FB012168
:1038500020460EF0A9FA29682C3112F071FB8EE790
:10386000002120460EF0A0FA8E4D2968283112F072
:1038700067FB012120460EF097FA29682C3112F0DF
:103880005FFB022120460EF08FFA2968A03112F06A
:1038900057FB74E7002120460EF086FA0646814D5C
:1038A0002968043112F04CFB29682031304612F0AF
:1038B00047FB012120460EF077FA29681C3112F0EF
:1038C0003FFB022120460EF06FFA064629680431BC
:1038D00012F036FB29680831304612F031FB2968B6
:1038E0002431304612F02CFB49E7002120460EF02F
:1038F0005BFA6C4D2968203112F022FB0121204631
:103900000EF052FA29681C3112F01AFB37E7002139
:1039100020460EF049FA0646624D2968283112F019
:103920000FFB29689831304612F00AFB012120462E
:103930000EF03AFA29682C3112F002FB02212046DF
:103940000EF032FA2968943112F0FAFA17E70021E2
:1039500020460EF029FA534E3168503112F0F0FA39
:10396000402120460EF020FA05463168103112F051
:10397000E7FA31685431284612F0E2FAFFE60021F6
:1039800020460EF011FA0546464E3168043112F019
:10399000D7FA31688031284612F0D2FAEFE640219A
:1039A00020460EF001FA3F4D2968183112F0C8FA8E
:1039B000412120460EF0F8F92968103112F0C0FAC2
:1039C000DDE6002120460EF0EFF9364B1968703124
:1039D00012F0B6FAD3E6002120460EF0E5F9314D9B
:1039E0002968043112F0ACFA402120460EF0DCF9CF
:1039F0002968143112F0A4FA012120460EF0D4F9FE
:103A00002968843112F09CFA022120460EF0CCF98C
:103A10002968883112F094FAB1E6002120460EF0B0
:103A2000C3F9204D296812F08BFA412120460EF08F
:103A3000BBF92968AC3112F083FA432120460EF01D
:103A4000B3F92968B03112F07BFA422120460EF01A
:103A5000ABF92968A83112F073FA90E640212046AC
:103A60000EF0A2F90F4B1968B43112F069FA86E62C
:103A7000002120460EF098F90A4D296812F060FAEC
:103A8000012120460EF090F92968843112F058FA8D
:103A9000022120460EF088F92968883112F050FA88
:103AA0006DE600BFE8880020002120460EF07CF97A
:103AB0000646CB4D2968043112F042FA29688C3150
:103AC000304612F03DFA032120460EF06DF92968C8
:103AD000903112F035FA52E6002120460EF064F9DA
:103AE0004DE6002120460EF05FF90646BC4D2968E0
:103AF000043112F025FA29687831304612F020FAA4
:103B0000012120460EF050F92968843112F018FA8C
:103B100035E6002120460EF047F9B14B19687C319B
:103B200012F00EFA2BE6002120460EF03DF9064673
:103B3000AB4D2968043112F003FA29680831304688
:103B400012F0FEF929681831304612F0F9F94021D7
:103B500020460EF029F906462968043112F0F0F9E2
:103B600029685831304612F0EBF9412120460EF019
:103B70001BF92968843112F0E3F9422120460EF046
:103B800013F929685C3112F0DBF9F8E500212046D1
:103B90000EF00AF90646924D2968043112F0D0F968
:103BA00029684431304612F0CBF929681831304683
:103BB00012F0C6F9012120460EF0F6F806462968F3
:103BC000183112F0BDF929684831304612F0B8F9C1
:103BD000032120460EF0E8F82968483112F0B0F9C8
:103BE000022120460EF0E0F829684C3112F0A8F9C5
:103BF000C5E5002120460EF0D7F8794B196804314D
:103C000012F09EF9012509E0E9B220460EF0CCF849
:103C1000734B1968A43112F093F90135042DF3DDCB
:103C2000ADE5002120460EF0BFF86D4D296812F079
:103C300087F9422120460EF0B7F82968843112F046
:103C40007FF9412120460EF0AFF82968B43112F017
:103C500077F9402120460EF0A7F82968AC3112F020
:103C60006FF98CE5002120460EF09EF85C4B196838
:103C7000A83112F065F982E5002120460EF094F893
:103C80000646574D2968043112F05AF9296818314F
:103C9000304612F055F9042120460EF085F82968C7
:103CA000BC3112F04DF9032120460EF07DF8296851
:103CB000B83112F045F9012120460EF075F8296857
:103CC000843112F03DF95AE5002120460EF06CF8DF
:103CD0000646434D2968043112F032F9296818313B
:103CE000304612F02DF9032120460EF05DF82968C8
:103CF0009C3112F025F942E5002120460EF054F8DF
:103D00000546374E3168043112F01AF9316808312E
:103D1000284612F015F932E5002120460EF044F84D
:103D20002F4D2968043112F00BF9032120460EF0C3
:103D30003BF82968303112F003F9012120460EF0DA
:103D400033F82968343112F0FBF8022120460EF0D6
:103D50002BF82968383112F0F3F810E500212046DD
:103D60000EF022F81E4D29683C3112F0E9F80121CD
:103D700020460EF019F82968403112F0E1F8FEE40F
:103D8000002120460EF010F80546154E316804312A
:103D900012F0D6F831687431284612F0D1F8EEE40A
:103DA000002120460EF000F806460D4D296804312A
:103DB00012F0C6F829686031304612F0C1F80121CE
:103DC00020460DF0F1FF2968643112F0B9F80221A4
:103DD00020460DF0E9FF2968683112F0B1F8CEE411
:103DE000E888002008B5044B1B7813B112F020F9C5
:103DF00008BD12F03EF8FBE7E488002070B5CF4C18
:103E00002068FFF7EFFFFF222C21206812F05CFAF8
:103E10002068CB4B1B6A13F0020F00F05A864FF05C
:103E200000021E2363F304023B2363F34A121D23A3
:103E300063F3CF22292112F0DDF9C04B1868C04B83
:103E40001B6A13F0020F00F051864FF000020823A6
:103E500063F304020F2363F34A12072363F3CF22B1
:103E600048F2890112F0C6F9B44B1868B44B1B6ACA
:103E700013F0020F00F047864FF00002082363F3AF
:103E800004020F2363F34A12072363F3CF2279213D
:103E900012F0B0F9A94B1868A94B1B6A13F0020F76
:103EA00000F03E864FF00002082363F304020F2364
:103EB00063F34A12072363F3CF2248F28A0112F018
:103EC00099F99E4C9E4DAA8948F28B01206812F008
:103ED00091F96A697E21206812F062FA2068043044
:103EE000FFF780FF24680434002012F06FFE1D28C5
:103EF00000F3238601220121204612F011F98F4C94
:103F00002068FF222C21043012F0DEF920680430F2
:103F10008B4B1B6A13F0020F00F01C864FF0FF3230
:103F2000292112F067F9854B18680430844B1B6A0D
:103F300013F0020F00F01B864FF000021C2363F306
:103F40000402372363F34A121A2363F3CF22392181
:103F500012F050F97A4B1B6A13F0200F00F01A860A
:103F6000764C2068764BDA8940F23941043012F001
:103F700041F924680434002012F028FE772800F369
:103F8000148601223021204612F0CAF86B4C2068BA
:103F900001223321043012F0C3F820680430684B4A
:103FA0001B6A13F0020F00F00D864FF00002082389
:103FB00063F304020F2363F34A12072363F3CF2250
:103FC00048F2890112F016F95C4D28685C4C626970
:103FD0007E21043012F0E4F928680430236A13F0DB
:103FE000020F00F0F3854FF00002082363F3040290
:103FF0000F2363F34A12072363F3CF22792112F0D0
:10400000F9F84E4B186804304D4B1B6A13F0020F41
:1040100000F0E0854FF00002082363F304020F2351
:1040200063F34A12072363F3CF2248F2A90112F087
:10403000E1F8424B18680430414B1B6A13F0020F41
:1040400000F0CC854FF00002082363F304020F2335
:1040500063F34A12072363F3CF22992112F0CAF8BF
:10406000364C206801229021043012F059F824685F
:104070000434002012F0B8FD012840F2B38500207E
:1040800012F0A4FDC0EB00104000EF2800F3C4853F
:104090000125002012F09AFD772800F3CD85012339
:1040A000EA1812B21221204612F03AF8234B1C688B
:1040B0000434002012F098FD012840F2CA85002047
:1040C00012F084FDC0EB00104000EF2800F3DB8508
:1040D0000125002012F07AFD772800F3E485012302
:1040E000EA1812B21321204612F01AF8134B1C687A
:1040F0000434002012F078FD012840F2E185002010
:1041000012F064FDC0EB00104000EF2800F3F285D0
:104110000125002012F05AFD772800F3FB850123CA
:10412000EA1812B21021204611F0FAFF034B1C6866
:104130000434002012F058FD04E000BFE88800209D
:10414000EC880020012840F2F285002012F03EFDAC
:10415000C0EB00104000EF2800F30386012500208B
:1041600012F034FD772800F30C860123EA1812B20E
:104170001121204611F0D4FFCF4B1C6804340020DD
:1041800012F032FD012840F20986002012F01EFDD7
:10419000C0EB00104000EF2800F31A860122142122
:1041A000204611F0BDFFC44C20680022B02104302D
:1041B00011F0B6FF20683922B721043011F0B0FFAA
:1041C00020680C30FFF70EFE2068011D0C3011F046
:1041D0005BFF20680C30B94B1B6A13F0020F00F034
:1041E00007864FF000021B2363F30402352363F3B9
:1041F0004A121A2363F3CF22292111F0FBFFAE4BA1
:1042000018680C30AD4B1B6A13F0020F00F0FD85EF
:104210004FF000021D2363F30402392363F34A12B3
:104220001B2363F3CF22392111F0E4FFA24B18685E
:104230000C30A24B1B6A13F0020F00F0F2854FF016
:104240000002092363F30402102363F34A120623D6
:1042500063F3CF2248F2890111F0CCFF964B186826
:104260000C30964B1B6A13F0020F00F0E7854FF0FD
:104270000002092363F30402102363F34A120623A6
:1042800063F3CF22792111F0B5FF8B4B18680C3006
:104290008A4B1B6A13F0020F00F0DD854FF000021D
:1042A000092363F30402102363F34A12062363F322
:1042B000CF2248F2A90111F09DFF7F4B18680C3006
:1042C0007E4B1B6A13F0020F00F0D2854FF0000204
:1042D000092363F30402102363F34A12062363F3F2
:1042E000CF22992111F086FF734C20680830FFF728
:1042F00079FD20680830714B1B6A13F0020F00F043
:10430000C4851D234FF0000263F304023B2161F3D7
:104310004A1263F3CF2241F2290111F06BFF664D7F
:104320002868664CA28940F22911083011F062FF1A
:104330002E6808363321A08914F04AFB024641F268
:104340002911304611F056FF28680830236A13F00F
:10435000020F00F0A7854FF0FF3242F2290111F061
:1043600049FF554C206800224FF49871083011F035
:10437000D7FE25680835514E3321B08914F028FB4B
:10438000024641F23921284611F034FF20680830F6
:10439000336A13F0020F00F0928519234FF00002E8
:1043A00063F30402332161F34A1263F3CF2241F233
:1043B000390111F01FFF404B186808303F4B1B6A52
:1043C00013F0020F00F088854FF00002082363F31A
:1043D00004020F2363F34A12072363F3CF2240F250
:1043E000391111F007FF344B18680830334B1B6A42
:1043F00013F0020F00F07D854FF00002082363F3F5
:1044000004020F2363F34A12072363F3CF2241F21E
:10441000391111F0EFFE284B18680830274B1B6A42
:1044200013F0020F00F072854FF000021C2363F3BB
:104430000402372363F34A121A2363F3CF2242F2B2
:10444000390111F0D7FE1C4B186808301B4B1B6A52
:1044500013F0020F00F067854FF00002082363F3AA
:1044600004020F2363F34A12072363F3CF2249F2B6
:10447000890111F0BFFE104B186808300F4B1B6A02
:1044800013F0020F00F05A854FF0FF3248F2891105
:1044900011F0B0FE084B18680830084B1B6A13F087
:1044A000020F00F04F854FF0FF3249F2891111F0F1
:1044B000A1FE014B186803E0E8880020EC8800208A
:1044C0000830CE4B1B6A13F0020F00F03F85152316
:1044D0004FF0000263F304022A2161F34A1263F3EE
:1044E000CF224AF2890111F085FEC54B18680830C9
:1044F000C24B1B6A13F0020F00F034854FF000022C
:10450000082363F304020F2363F34A12072363F3C0
:10451000CF2249F2A90111F06DFEB94B186808309D
:10452000B64B1B6A13F0020F00F020854FF0FF32EC
:1045300048F2A91111F05EFEB14B18680830AF4B7C
:104540001B6A13F0020F00F015854FF0FF3249F29D
:10455000A91111F04FFEAA4B18680830A74B1B6A2F
:1045600013F0020F00F00A8515234FF0000263F3E9
:1045700004022A2161F34A1263F3CF224AF2A9010D
:1045800011F038FE9E4C20682922B621083011F027
:10459000C7FD20681030FFF725FC206847F6FF7242
:1045A0000121103011F0BCFD2068FF222C211030B9
:1045B00011F08AFE20681030904B1B6A13F0020F36
:1045C00000F0E8844FF0FF32292111F013FE8C4BEC
:1045D0001C681034894B1B6A13F0020F00F0E7844B
:1045E00033224FF0FF31854B9889FFF755F802468B
:1045F00041F22901204611F0FDFD814D28687F4CD4
:10460000A28940F22911103011F0F4FD2E68103605
:104610004C21A08914F0DCF9024641F22911304600
:1046200011F0E8FD28681030236A13F0020F00F043
:10463000D1844FF0FF3242F2290111F0DBFD704BC3
:10464000186810306D4B1B6A13F0020F00F0CF8416
:1046500019234FF0000263F30402332161F34A127D
:1046600063F3CF2242F2291111F0C4FD644D286892
:10467000624CA2893921103011F0BCFD2868A28952
:1046800041F23901103011F0B5FD28681030236A6D
:1046900013F0020F00F0B78411234FF0000263F310
:1046A0000402222161F34A1263F3CF2242F239015C
:1046B00011F0A0FD524B1C681034002012F086FA55
:1046C000772800F3AC8401223021204611F028FD28
:1046D0004B4C206800224FF49E71103011F0F4FD15
:1046E00020681030454B1B6A13F0020F00F0A484C1
:1046F0004FF00002092363F30402102363F34A120C
:10470000062363F3CF2248F2890111F073FD3C4B7D
:1047100018681030394B1B6A13F0020F00F09084B8
:104720004FF00002092363F30402102363F34A12DB
:10473000062363F3CF2249F2890111F05BFD304C6F
:1047400020684FF0FF3248F28911103011F052FD0D
:1047500020684FF0FF3249F28911103011F04AFD04
:1047600020681030254B1B6A13F0020F00F06C8498
:1047700011234FF0000263F30402222161F34A1275
:1047800063F3CF224AF2890111F034FD1C4B186803
:1047900010301A4B1B6A13F0020F00F061844FF0C7
:1047A0000002092363F30402102363F34A12062371
:1047B00063F3CF2248F2A90111F01CFD104B1868D9
:1047C00010300E4B1B6A13F0020F00F04D844FF0B7
:1047D0000002092363F30402102363F34A12062341
:1047E00063F3CF2249F2A90111F004FD044C2068C3
:1047F0004FF0FF3249F2A901103003E0EC880020AD
:10480000E888002011F0F6FC20684FF0FF3249F2F2
:10481000A911103011F0EEFC20681030DA4B1B6A41
:1048200013F0020F00F0248411234FF0000263F311
:104830000402222161F34A1263F3CF224AF2A90152
:1048400011F0D8FCD14B18681030CF4B1B6A13F015
:10485000020F00F019844FF00002092363F30402F1
:10486000102363F34A12062363F3CF22792111F058
:10487000C1FCC64B18681030C34B1B6A13F0020F03
:1048800000F006844FF00002092363F304021023B2
:1048900063F34A12062363F3CF2241F2790111F048
:1048A000A9FCBA4C20684FF0FF3240F27911103069
:1048B00011F0A0FC20684FF0FF3241F27911103066
:1048C00011F098FC20681030AF4B1B6A13F0020FF8
:1048D00000F0E18311234FF0000263F30402222170
:1048E00061F34A1263F3CF2242F2790111F082FCA4
:1048F000A64B1C681034002012F068F900EB800011
:10490000C000EF2800F3D28301221221204611F0CB
:1049100007FC9E4B1C681034002012F057F900EB86
:104920008000C000EF2800F3D0830122132120462D
:1049300011F0F6FB954B1C681034002012F046F97C
:10494000C0EB0010EF2800F3CF8301221021204696
:1049500011F0E6FB8D4B1C681034002012F036F984
:10496000C0EB0010EF2800F3CE8301221121204676
:1049700011F0D6FB854B1C681034002012F026F98C
:1049800000EB80008000EF2800F3CC83012214218B
:10499000204611F0C5FB7D4B1C6810347A4B1B6A16
:1049A00013F0200F00F0CD8300224021204611F0AB
:1049B000B7FB764C206800224C21103011F084FCAB
:1049C00020687F224FF41371103011F07DFC2068B5
:1049D0006D4DAA894921103011F00CFC2068EA893C
:1049E00040F24941103011F005FC20680022B0214E
:1049F000103011F095FB20683C22B521103011F0E9
:104A00008FFB20682922B621103011F089FB206825
:104A10004C22B721103011F083FB20680022B12115
:104A2000103011F07DFB2068002241F2B1011030FE
:104A300011F076FB20681430FFF7D4F924681434A1
:104A4000002012F0D1F8012840F28E83002012F0ED
:104A5000BDF800EB8000C000EF2800F39E83012228
:104A60001421204611F05CFB484B18681830FFF702
:104A7000B9F9002012F0B8F8012840F29D83002017
:104A800012F0A4F800EB80008000EF2800F3AD8363
:104A900001243E4D286822461221183011F040FBB7
:104AA000286822461321183011F03AFB2868224664
:104AB0001021183011F034FB2868224611211830DB
:104AC00011F02EFB286822461421183011F028FB23
:104AD00070BD4FF000020B2363F30402122363F353
:104AE0004A12082363F3CF22FFF7A4B94FF0000264
:104AF0001D2363F304023A2363F34A121C2363F376
:104B0000CF22FFF7ADB94FF000021D2363F304027B
:104B10003A2363F34A121C2363F3CF22FFF7B7B99A
:104B20004FF000021D2363F304023A2363F34A1299
:104B30001C2363F3CF22FFF7C0B9002012F046F820
:104B40000A30134B83FB0023C217C2EBE30212B2FD
:104B5000FFF7D1B94FF000020E2363F304021823CC
:104B600063F34A120B2363F3CF22FFF7D9B94FF057
:104B70000002122363F30402222363F34A12102378
:104B800063F3CF22FFF7E3B9EC880020E888002028
:104B900067666666E64B1868E64B9A8940F23921EB
:104BA000043011F027FBFFF7DBB9002012F00EF8FC
:104BB0002830E14B83FB0023C217C2EB631212B211
:104BC000FFF7E0B94FF0FF32FFF7FAB94FF0FF32CD
:104BD000FFF714BA4FF0FF32FFF727BA4FF0FF325A
:104BE000FFF73BBA002011F0F1FFC0EB0010EF28F7
:104BF00002DC0125FFF74DBA002011F0E7FFC0EB02
:104C0000001000F15002CC4B83FB0213D217C2EB11
:104C1000A31295B2FFF73DBA002011F0D7FFC0EB09
:104C2000001045005035C44B83FB0523ED17C5EB41
:104C3000A31295B2FFF72DBA002011F0C7FF28305C
:104C4000BD4A82FB0032C317C3EB62139BB2FFF76E
:104C500027BA002011F0BAFFC0EB0010EF2802DCE9
:104C60000125FFF736BA002011F0B0FFC0EB0010AD
:104C700000F15002B04B83FB0213D217C2EBA31218
:104C800095B2FFF726BA002011F0A0FFC0EB00108C
:104C900045005035A84B83FB0523ED17C5EBA31248
:104CA00095B2FFF716BA002011F090FF2830A24A03
:104CB00082FB0032C317C3EB62139BB2FFF710BA3B
:104CC000002011F083FFC0EB0010EF2802DC01256B
:104CD000FFF71FBA002011F079FFC0EB001000F1C0
:104CE0005002954B83FB0213D217C2EBA31295B26D
:104CF000FFF70FBA002011F069FFC0EB001045006C
:104D000050358D4B83FB0523ED17C5EBA31295B2F0
:104D1000FFF7FFB9002011F059FF2830864A82FBC7
:104D20000032C317C3EB62139BB2FFF7F9B900203F
:104D300011F04CFFC0EB0010EF2802DC0125FFF75B
:104D40000EBA002011F042FFC0EB001000F150023B
:104D5000794B83FB0213D217C2EBA31295B2FFF774
:104D6000FEB9002011F032FFC0EB001045005035B5
:104D7000714B83FB0523ED17C5EBA31295B2FFF72B
:104D8000EEB9002011F022FF28306B4A82FB00327E
:104D9000C317C3EB62139BB2FFF7E8B9002011F011
:104DA00015FFC0EB0010EF2802DC0122FFF7F7B976
:104DB000002011F00BFFC0EB001000F150025E4B21
:104DC00083FB0213D217C2EBA31212B2FFF7E7B9AB
:104DD000002011F0FBFEC0EB001042005032564B99
:104DE00083FB0213D217C2EBA31212B2FFF7D7B99B
:104DF0004FF00002092363F30402122363F34A1203
:104E0000082363F3CF22FFF7F7B908234FF000021E
:104E100063F30402102161F34A1263F3CF22FFF718
:104E200002BA4FF00002152363F304022A2363F34E
:104E30004A12142363F3CF22FFF70CBA4FF000029B
:104E4000152363F304022A2363F34A12142363F342
:104E5000CF22FFF717BA4FF00002152363F30402C5
:104E60002A2363F34A12142363F3CF22FFF721BAF4
:104E70004FF00002152363F304022A2363F34A125E
:104E8000142363F3CF22FFF72CBA4FF000020A235A
:104E900063F30402132363F34A12092363F3CF225B
:104EA000FFF739BA4FF000020E2363F30402182310
:104EB00063F34A120B2363F3CF22FFF74EBA4FF08E
:104EC00000020D2363F30402192363F34A120B2338
:104ED00063F3CF22FFF76BBA4FF000020D2363F3A9
:104EE0000402192363F34A120B2363F3CF22FFF763
:104EF00076BA4FF000020D2363F30402192363F323
:104F00004A120B2363F3CF22FFF781BA4FF000025E
:104F10000D2363F30402192363F34A120B2363F393
:104F2000CF22FFF78CBA4FF0FF32FFF7A0BA00BFD5
:104F3000E8880020EC880020676666664FF0FF3244
:104F4000FFF7A4BA4FF0FF32FFF7AFBA13234FF0C9
:104F5000000263F30402262161F34A1263F3CF22B5
:104F6000FFF7BFBA4FF0FF32FFF7D3BA4FF0FF326F
:104F7000FFF7DEBA4FF0FF32FFF7E9BA13234FF025
:104F8000000263F30402262161F34A1263F3CF2285
:104F9000FFF7F4BA4FF000020E2363F30402182364
:104FA00063F34A120B2363F3CF22FFF70DBB4FF0DD
:104FB00000010E2363F30401182363F34A110B234A
:104FC00063F3CF214C22904B9889FEF765FB024694
:104FD000FFF70EBB4FF000020E2363F30402182309
:104FE00063F34A120B2363F3CF22FFF724BB112391
:104FF0004FF0000263F30402222161F34A1263F3CB
:10500000CF22FFF72FBB08234FF0000263F3040207
:10501000102161F34A1263F3CF22FFF747BB002050
:1050200011F0D4FD2830794B83FB0023C217C2EB6B
:10503000631212B2FFF748BB4FF0FF32FFF763BBBA
:105040004FF0FF32FFF777BB11234FF0000263F3FD
:105050000402222161F34A1263F3CF22FFF792BBCD
:105060004FF0FF32FFF7A6BB4FF0FF32FFF7BABB9E
:1050700011234FF0000263F30402222161F34A126C
:1050800063F3CF22FFF7DABB4FF0FF32FFF7EEBB3F
:105090004FF0FF3201E411234FF0000263F30402EA
:1050A000222161F34A1263F3CF221DE4002011F0A4
:1050B0008DFD00EB8000C2005032544B83FB021385
:1050C000D217C2EBA31212B21FE4002011F07EFD32
:1050D00000EB8000C20050324C4B83FB0213D2170E
:1050E000C2EBA31212B221E4002011F06FFDC0EB5D
:1050F000001000F15002454B83FB0213D217C2EBA4
:10510000A31212B222E4002011F060FDC0EB0010E7
:1051100000F150023D4B83FB0213D217C2EBA312E6
:1051200012B223E4002011F051FD00EB8000820058
:105130005032364B83FB0213D217C2EBA31212B2CA
:1051400025E4002011F042FD772801DC01222CE447
:10515000002011F03BFD28302C4B83FB0023C217AD
:10516000C2EB631212B220E4002011F02FFD00EB1D
:1051700080008000EF2801DC012271E4002011F0A2
:1051800025FD00EB800082005032204B83FB021390
:10519000D217C2EBA31212B262E4002011F016FD86
:1051A00000EB8000C2005032184B83FB0213D21771
:1051B000C2EBA31212B253E4002011F007FD00EB82
:1051C00080004000EF2801DC012462E4002011F09F
:1051D000FDFC00EB8000440050340C4B83FB0423A7
:1051E000E417C4EBA31424B253E4002011F0EEFC46
:1051F00000EB800084005034044B83FB0423E4174D
:10520000C4EBA31424B244E4EC880020676666660D
:1052100038B56A4C20682830FEF7E4FD206847F670
:10522000FF720121283010F07BFF2068FF222C2123
:10523000283011F049F820682830614B1B6A13F0C0
:10524000020F00F096804FF000021B2363F304026C
:10525000352363F34A121A2363F3CF22292110F076
:10526000C9FF564B18682830554B1B6A13F0020FC4
:1052700000F08B804FF00002092363F30402102337
:1052800063F34A12062363F3CF22792110F0B2FFB1
:105290004A4C20684A4DAA894921283010F0AAFFBB
:1052A0002068EA8940F24941283010F0A3FF2068C5
:1052B00000224C21283011F007F820687F224FF49B
:1052C0001371283011F000F8246828342B6A13F089
:1052D000200F5DD000224021204610F021FF374CE6
:1052E00020680022B021283010F01AFF20684C22DC
:1052F000B721283010F014FF20682C30FEF772FD23
:105300002068FF222C21084410F0DEFF206847F6B9
:10531000FF7201212C3010F003FF2068284DAA896C
:1053200029212C3010F066FF206811234FF0000275
:1053300063F30402222161F34A1263F3CF2242F2A3
:1053400029012C3010F056FF20682C302B6A13F006
:10535000020F30D04FF00002092363F30402102340
:1053600063F34A12082363F3CF22792110F042FF3E
:1053700038BD4FF00002092363F30402122363F3E4
:105380004A12082363F3CF2268E70E4B1A887CE7A2
:10539000002011F01BFC772801DC01229BE7002094
:1053A00011F014FC2830084B83FB0023C217C2EB1A
:1053B000631212B28FE7034B1A88D6E7E888002001
:1053C000EC880020B43702086766666610B59A4C10
:1053D00020689430FEF706FD2068FF222C219430CF
:1053E00010F072FF20689430944B1B6A13F0020F88
:1053F00000F0A480914B9A89292110F0FBFE8E4B7E
:10540000186894308D4B1B6A13F0020F00F09980DE
:105410004FF00002092363F30402102363F34A12DE
:10542000062363F3CF22792110F0E4FE824C20683A
:1054300047F6FF720121943010F072FE2468943414
:10544000002011F0C3FBC0EBC000EF287CDC012280
:105450001221204610F064FE774B1C689434002023
:1054600011F0B4FBC0EBC000EF287CDC012213215B
:10547000204610F055FE704B1C689434002011F04B
:10548000A5FBC0EBC000EF287CDC012210212046E8
:1054900010F046FE684B1C689434002011F096FB17
:1054A000C0EBC000EF287CDC01221121204610F067
:1054B00037FE614C20689830FEF794FC24689834DD
:1054C000002011F083FB00EB80004000EF2877DC28
:1054D00001221721204610F023FE574B1C689834F8
:1054E000002011F073FB00EB80004000EF2876DC19
:1054F00001221821204610F013FE4F4B1C689834EF
:10550000002011F063FB00EB80004000EF2875DC09
:1055100001221521204610F003FE474B1C689834E9
:10552000002011F053FB00EB80004000EF2874DCFA
:1055300001221621204610F0F3FD10BD404B1A88C1
:105540005AE73F4B1A886EE7002011F03FFBC0EB93
:10555000C00000F150023B4B83FB0213D217C2EB99
:10556000A31212B274E7002011F030FBC0EBC000B0
:1055700000F15002334B83FB0213D217C2EBA3128C
:1055800012B274E7002011F021FBC0EBC00000F163
:1055900050022C4B83FB0213D217C2EBA31212B2A0
:1055A00074E7002011F012FBC0EBC00000F15002C4
:1055B000244B83FB0213D217C2EBA31212B274E77F
:1055C000002011F003FB00EB8000420050321D4B25
:1055D00083FB0213D217C2EBA31212B279E70020A9
:1055E00011F0F4FA00EB800042005032154B83FBBF
:1055F0000213D217C2EBA31212B27AE7002011F005
:10560000E5FA00EB8000420050320E4B83FB0213A0
:10561000D217C2EBA31212B27BE7002011F0D6FA28
:1056200000EB800042005032064B83FB0213D2177E
:10563000C2EBA31212B27CE7E8880020EC880020BD
:10564000B43702086766666610B5404C2068A03023
:10565000FEF7C8FB2068FF222C21A03010F034FE9A
:1056600020683B4B1A882921A03010F0C3FD206828
:1056700047F6FF720121A03010F052FD2468A034DB
:10568000002011F0A3FA3B2830DC4FF0FF3210214C
:10569000204610F045FD2D4B1C68A034002011F071
:1056A00095FA3B282EDC4FF0FF321121204610F0F6
:1056B00037FD264B1C68A034002011F087FA3B28E8
:1056C0002CDC4FF0FF321221204610F029FD1F4B39
:1056D0001C68A034002011F079FA3B282ADC4FF036
:1056E000FF321321204610F01BFD10BD002011F0E9
:1056F0006DFA1430174B83FB0023C217A2EB231261
:1057000012B2C4E7002011F061FA1430114B83FB90
:105710000023C217A2EB231212B2C6E7002011F039
:1057200055FA14300B4B83FB0023C217A2EB231254
:1057300012B2C8E7002011F049FA1430054B83FB80
:105740000023C217A2EB231212B2CAE7E888002096
:10575000B43702086766666638B5824C20687430D4
:10576000FEF740FB206847F6FF720121743010F00D
:10577000D7FC24687434002011F028FA00EB800074
:105780008000EF2800F3838001221221204610F0D0
:10579000C7FC744B1C687434002011F017FA00EB3E
:1057A00080008000EF2800F3818001221321204631
:1057B00010F0B6FC6B4B1C687434002011F006FA34
:1057C00000EB80008000EF287FDC012210212046C2
:1057D00010F0A6FC634B1C687434002011F0F6F93D
:1057E000C0EB00104000EF287EDC0122142120468F
:1057F00010F096FC5B4B1C687434002011F0E6F945
:1058000000EB800000EB8000EF287CDC0122C0214F
:10581000204610F085FC534C2068534DAA899921ED
:10582000743010F0E7FC2068AA89C921743010F0A8
:10583000E1FC206811234FF0000263F304022221EF
:1058400061F34A1263F3CF22CA21743010F0D2FC04
:1058500024687434002011F0B9F900EB8000400096
:10586000EF2861DC01229021204610F059FC3D4BCD
:105870001C687434002011F0A9F9C0EBC000EF28B7
:1058800061DC0122C321204610F04AFC38BD002013
:1058900011F09CF900EB800082005032334B83FB07
:1058A0000213D217C2EBA31212B26EE7002011F05E
:1058B0008DF900EB8000820050322C4B83FB0213E9
:1058C000D217C2EBA31212B270E7002011F07EF9DA
:1058D00000EB800082005032244B83FB0213D2176E
:1058E000C2EBA31212B271E7002011F06FF9C0EB06
:1058F0000010420050321D4B83FB0213D217C2EB43
:10590000A31212B272E7002011F060F900EB8000E0
:1059100000EB800000F15002144B83FB0213D217FE
:10592000C2EBA31212B272E7002011F04FF900EBA4
:105930008000420050320D4B83FB0213D217C2EBA2
:10594000A31212B28FE7002011F040F9C0EBC000A3
:1059500000F15002054B83FB0213D217C2EBA312D6
:1059600012B28FE7E8880020EC8800206766666640
:1059700070B5D44C20686030FEF734FA20681125E9
:105980004FF0000265F30402222666F34A1265F323
:10599000CF229921603010F02DFC20684FF00002DA
:1059A00065F3040266F34A1265F3CF22C921603021
:1059B00010F020FC2068C44B9A89CA21603010F096
:1059C00019FC24686034002011F000F900EB80001D
:1059D000EF2800F3418101229021204610F0A0FB26
:1059E000B84B1C686034002011F0F0F83B2800F33D
:1059F00042810122C321204610F092FBB14B1C686A
:105A00006034002011F0E2F81D2800F340810122EB
:105A1000C221204610F084FBAA4B1C686034002091
:105A200011F0D4F800EB80008000EF2800F33B81F8
:105A300001221221204610F073FBA24B1C68603437
:105A4000002011F0C3F800EB80008000EF2800F385
:105A50003F8101221321204610F062FB994B1C6804
:105A60006034002011F0B2F800EB80008000EF28D5
:105A700000F33D8101221021204610F051FB914B93
:105A80001C686034002011F0A1F800EB8000800059
:105A9000EF2800F33B8101221421204610F040FB47
:105AA000884B1C686034002011F090F8C0EB0010A7
:105AB000EF2800F33A810122C021204610F030FB8C
:105AC000804C206847F6FF720121603010F028FBFF
:105AD00020686430FEF786F9206811254FF0000237
:105AE00065F30402222666F34A1265F3CF22992158
